:03000000020006F5
:03005F0002000399
:0300030002006296
:100062007EFF8E058DA08D908D806306FF7C007DC6
:10007200007A647B00EA24FFF8EB34FFF9880289F6
:1000820003E84970F00CBC00010D74FC2D50E280B5
:01009200D19C
:06003500E478FFF6D8FD9F
:100013007900E94400601B7A00900097780175A08D
:1000230000E493F2A308B8000205A0D9F4DAF2754C
:02003300A0FF2C
:10003B007800E84400600A790175A000E4F309D860
:10004B00FC7800E84400600C7900900001E4F0A318
:04005B00D8FCD9FAFA
:0D000600758107120093E58260030200037C
:040093007582002250
:00000001FF
