:0400000002001132B7
:03000B0002009E52
:07006A00C200D20102000EEA
:03000E0002016587
:100071007E007F00C3EE945AEF64809480501D7C13
:10008100007D00C3EC9428ED6480948050070CBC83
:1000910000F10D80EE0EBE00DB0F80D822758C3C86
:1000A100758AB01001028004D2008002D20132852B
:1000B100822185832285F0237524FC752500752610
:1000C100607527007528DA752900752AF2752B00ED
:1000D100752C66752D00752EB6752F0075303E7521
:1000E10031007532E07533007534FE7535007536B3
:1000F100F67537007B007C00C3EB9404EC648094BC
:100101008050508B028AF005F07401800225E0D501
:10011100F0FBF4F580EB2BFAEC33FFEA2521FAEF43
:100121003522FFAE238A828F838EF01202AAFAA3B0
:100131001202AAFFEA2AFAEF33EA2424F9E7F4F5D6
:10014100A0C004C003120071D003D0040BBB00A8EF
:100151000C80A522758901758C3C758AB0D2AFD20D
:10016100A9D28C227E007F00C007C006120155D0A3
:1001710006D00710000280050EBE00010FC3740FE8
:100181009E74A78FF063F08095F050047E007F008D
:100191007510E87511038E828F83C007C0061202A5
:1001A100FC75100A7511001202C6E5828583F0D034
:1001B10006D007F53885F0397510647511008E8207
:1001C1008F83C007C0061202FC75100A7511001258
:1001D10002C6E5828583F0D006D007F53A85F03B6B
:1001E10075100A7511008E828F83C007C006120236
:1001F100FC75100A7511001202C6E5828583F0D0E4
:1002010006D007F53C85F03D75100A7511008E8208
:100211008F83C007C0061202C6E5828583F0F53ED2
:1002210085F03F90003875F0401200B0D006D0073D
:0302310002017453
:06004000E478FFF6D8FD94
:10001E007900E94400601B7A00900338780175A0DE
:10002E0000E493F2A308B8000205A0D9F4DAF27541
:02003E00A0FF21
:10023400E510451160467A01E51025E0F510E51159
:10024400334012F511E5829510E583951140030AB8
:1002540080E6C3E51113F511E51013F510C3E5822B
:100264009510F5F0E58395114005F58385F082C37B
:0D027400E51113F511E51013F510DAE12284
:100046007800E84400600A790175A000E4F309D855
:10005600FC7800E84400600C7900900001E4F0A30D
:04006600D8FCD9FAEF
:100281007A10E4FBFCE58225E0F582E58333F58312
:10029100EB33FBEC33FCEB9510F5F0EC95114006DC
:0902A100FCABF0438201DADD221E
:0D00110075813F120334E582600302000E8A
:1002AA0020F71430F6148883A88220F507E6A8837D
:1002BA0075830022E280F7E49322E022C2D5E58327
:1002CA0030E70DD2D5E4C39582F582E49583F583B0
:1002DA00E51130E70BE4C39510F510E49511F5111B
:1002EA0012023430D50BE4C39582F582E49583F586
:1002FA008322C2D5E58330E70DD2D5E4C39582F5D2
:10030A0082E49583F583E51130E70DB2D5E4C39510
:10031A0010F510E49511F51112028130D50BE4C3E2
:0E032A009582F582E49583F583227582002288
:00000001FF
