:03000000020006F5
:03005F0002000399
:03000300020134C3
:100062007E007F00C3EE945AEF64809480501D7C22
:10007200007D00C3EC940AED6480948050070CBCB0
:1000820000F10D80EE0EBE00DB0F80D822858208C3
:1000920085830985F00A750BFC750C00750D60757A
:1000A2000E00750FDA7510007511F27512007513D6
:1000B200667514007515B675160075173E7518002D
:1000C2007519E0751A00751BFE751C00751DF67515
:1000D2001E007B007C00C3EB9404EC64809480508F
:1000E200508B028AF005F07401800225E0D5F0FB06
:1000F200F4F580EB2BFAEC33FFEA2508FAEF350929
:10010200FFAE0A8A828F838EF012017BFAA312015C
:100112007BFFEA2AFAEF33EA240BF9E7F4F5A0C0F1
:1001220004C003120062D003D0040BBB00A80C80F1
:10013200A522751F057520007521047522007523FF
:100142000375240075250275260075270975280098
:10015200752904752A00752B08752C00752D0775F5
:100162002E0090001F75F04012008F120062900066
:090172002775F04012008F80E9AE
:06003500E478FFF6D8FD9F
:100013007900E94400601B7A0090019B780175A088
:1000230000E493F2A308B8000205A0D9F4DAF2754C
:02003300A0FF2C
:10003B007800E84400600A790175A000E4F309D860
:10004B00FC7800E84400600C7900900001E4F0A318
:04005B00D8FCD9FAFA
:0D00060075812E120197E582600302000350
:10017B0020F71430F6148883A88220F507E6A883AD
:10018B0075830022E280F7E49322E022758200223D
:00000001FF
